:020000040800F2
:1000000000200020C1250008392500083B250008F4
:1000100000000000000000000000000000000000E0
:100020000000000000000000000000003D25000866
:1000300000000000000000003F25000841250008E6
:1000400011260008112600081126000811260008B4
:100050001126000849250008112600080D24000873
:100060001126000811260008112600081126000894
:1000700011260008112600080000000011260008C3
:100080000000000011260008000000000000000031
:1000900011260008000000001126000811260008A3
:1000A0001126000811260008112600085525000811
:1000B0001126000811260008112600081126000844
:1000C00010B5064C2378002B07D1054B002B02D02E
:1000D000044800E000BF0123237010BD0C00002085
:1000E0000000000080260008044B10B5002B03D050
:1000F0000349044800E000BF10BDC04600000000F6
:10010000100000208026000802B47146490849000A
:10011000095C49008E4402BC7047C0460022430877
:100120008B4274D303098B425FD3030A8B4244D3BF
:10013000030B8B4228D3030C8B420DD3FF22090201
:1001400012BA030C8B4202D31212090265D0030BC0
:100150008B4219D300E0090AC30B8B4201D3CB03B6
:10016000C01A5241830B8B4201D38B03C01A5241F8
:10017000430B8B4201D34B03C01A5241030B8B42FA
:1001800001D30B03C01A5241C30A8B4201D3CB02E5
:10019000C01A5241830A8B4201D38B02C01A5241CA
:1001A000430A8B4201D34B02C01A5241030A8B42CD
:1001B00001D30B02C01A5241CDD2C3098B4201D3E5
:1001C000CB01C01A524183098B4201D38B01C01A63
:1001D000524143098B4201D34B01C01A52410309DA
:1001E0008B4201D30B01C01A5241C3088B4201D389
:1001F000CB00C01A524183088B4201D38B00C01A36
:10020000524143088B4201D34B00C01A5241411A5C
:1002100000D20146524110467047FFE701B5002069
:1002200000F0F0F802BDC0460029F7D076E770472D
:1002300003460B437FD4002243088B4274D3030947
:100240008B425FD3030A8B4244D3030B8B4228D3E8
:10025000030C8B420DD3FF22090212BA030C8B420E
:1002600002D31212090265D0030B8B4219D300E0AE
:10027000090AC30B8B4201D3CB03C01A5241830B33
:100280008B4201D38B03C01A5241430B8B4201D3E3
:100290004B03C01A5241030B8B4201D30B03C01A0C
:1002A0005241C30A8B4201D3CB02C01A5241830A86
:1002B0008B4201D38B02C01A5241430A8B4201D3B5
:1002C0004B02C01A5241030A8B4201D30B02C01ADF
:1002D0005241CDD2C3098B4201D3CB01C01A524146
:1002E00083098B4201D38B01C01A524143098B42CF
:1002F00001D34B01C01A524103098B4201D30B01B8
:10030000C01A5241C3088B4201D3CB00C01A5241DC
:1003100083088B4201D38B00C01A524143088B42A1
:1003200001D34B00C01A5241411A00D2014652413A
:10033000104670475DE0CA0F00D04942031000D359
:100340004042534000229C4603098B422DD3030AAE
:100350008B4212D3FC22890112BA030A8B420CD3BE
:10036000890192118B4208D3890192118B4204D3E7
:1003700089013AD0921100E08909C3098B4201D367
:10038000CB01C01A524183098B4201D38B01C01AA1
:10039000524143098B4201D34B01C01A5241030918
:1003A0008B4201D30B01C01A5241C3088B4201D3C7
:1003B000CB00C01A524183088B4201D38B00C01A74
:1003C0005241D9D243088B4201D34B00C01A52414B
:1003D000411A00D20146634652415B10104601D3D8
:1003E0004042002B00D54942704763465B1000D362
:1003F000404201B5002000F005F802BD0029F8D008
:1004000016E770477047C046002B11D1002A0FD164
:10041000002900D1002802D00021C943081C07B4DC
:10042000024802A14018029003BDC046D9FFFFFF59
:1004300003B4684601B5029800F006F8019B9E4699
:1004400002B00CBC7047C046F0B557464E46454614
:10045000DE46E0B5040083B00D00924699468B421B
:100460002FD82CD04946504600F0AEF8290006009F
:10047000200000F0A9F8331A9846203B9B4600D58F
:1004800074E053465A4693401F00534642469340F9
:100490001E00AF4229D826D05B46A41BBD41002BCD
:1004A00000DA79E0002200230092019301235A46EA
:1004B00093400193012342469340009319E0824206
:1004C000D0D900220023009201930C9B002B01D075
:1004D0001C605D600098019903B03CBC9046994651
:1004E000A246AB46F0BDA342D6D90022002300921B
:1004F00001934346002BE8D0FB0772081A43464697
:100500007B080EE0AB4201D1A2420CD8A41A9D4157
:10051000012024196D410021013E24184D41002E77
:1005200006D0AB42EED9013E24196D41002EF8D120
:100530005B460098019900196941002B22DB2B00D2
:100540005A46D3402A004446E2401C005B46150050
:10055000002B2CDB26009E40330026004746BE4081
:100560003200801A994100900191AEE74246202363
:100570009B1A5246DA40414613004A468A40170009
:100580001F4382E7424620239B1A2A0046469A4090
:100590002300F3401343D5E74246202300219B1A52
:1005A0000022009101920122DA40019282E7424644
:1005B000202326009B1ADE402F00B4469740664653
:1005C0003B003343C9E7C04610B5002903D100F012
:1005D00007F8203002E0081C00F002F810BDC04609
:1005E0001C2101231B04984201D3000C10391B0A63
:1005F000984201D3000A08391B09984201D3000927
:10060000043902A2105C40187047C046040302027D
:10061000010101010000000000000000FA210A4B66
:1006200070B5890005001868FFF778FD00F084F8C0
:1006300004000120002C05D102382200290000F01E
:1006400037F8200070BDC046080000204023084A4B
:1006500010B5116800200B431360FFF7DFFF041E85
:1006600003D101F0F7FE200010BD0124FBE7C046D6
:1006700000200240024A1368013313607047C046ED
:1006800034000020014B18687047C0463400002039
:1006900070B50400FFF7F6FF631C5A1E9341050076
:1006A000E418FFF7EFFF401B8442FAD870BD00004A
:1006B00070B58901002814DA0F23C0B20340083B4B
:1006C000114A9B089B009B18032210409040FC326B
:1006D0001500114085408140DC69AC432143D9615C
:1006E00070BD032583082840A840FC352E00074A2A
:1006F0009B009B18C02286402940814092009C5854
:10070000B44321439950EBE700ED00E000E100E045
:100710001F2318401E3B8340014A13607047C046A8
:1007200000E100E01F2318401E3B8340014AD367CD
:100730007047C04604E100E0094A431E012093428D
:100740000DD8C021074A08485360036A09061B02F6
:100750001B0A0B430362002007239060136070475D
:10076000FFFFFF0010E000E000ED00E070B5841D29
:10077000E37F022B04D00423C363033B180070BD46
:100780000E210368456C1A688A431A6001221968B1
:10079000914319601C232B4015009D40016C431DA3
:1007A0004D60E2770024826BDC771300A242E5D033
:1007B00090472300E2E70000F0B5534A0B68821827
:1007C000541EA24185B00193002305320392019A81
:1007D000DA4001D105B0F0BD01259D40019A2A40C3
:1007E000009200D18DE04A689446102264469443FA
:1007F0002200013C022A1FD107240F271C40A4001D
:10080000A740DA0892008218166ABE430F69A74013
:100810003E43166203245E00B4408268A243CC6863
:10082000B440224382606246D206D20F9A404468A6
:10083000AC432243426001E0012CEBD90326340093
:100840005D00AC406246E4433240AA40076827405E
:100850003A430260C26814408A68AA401443624660
:10086000C460D2004DD50125284C0F27626B2A4366
:100870001D003540AD00AF406263254A9C08A400CE
:10088000A418A268BA43A0270292FF050022B8422A
:100890000CD0204F0132B84208D01F4F0132B8426D
:1008A00004D01E4F3200B84200D0039AAA406746D7
:1008B000029D2A43A2601A4A009C1668009DE443E8
:1008C0003543FF0301D4350025406746156056685F
:1008D000009D3543BF0301D4350025406746556070
:1008E0009668009D3543FF0201D4350025406746D8
:1008F0009560D568009E2E43BF0201D425402E008E
:10090000D660013363E7C04600E4FFAF0010024049
:10091000000001400004005000080050000C00508E
:1009200000040140002A01D0816170478162FCE728
:10093000044B10B55A69104202D0586101F06CFDA9
:1009400010BDC0460004014003689A69920701D5B2
:1009500000229A6201229969114202D199690A43DF
:100960009A61704770B5049E89053343890D194318
:1009700080230468DB00700D1840044B6568120486
:100980001843854311432943616070BDFF63FF0332
:10099000F8B504000E0017001D002268936933406B
:1009A0009B1B59424B41BB4201D0002017E06B1CFE
:1009B000F4D0FFF767FE069BC01A854201D3002DD5
:1009C000EBD12022636C0120134363642300413385
:1009D0001A70220000234232403413702370F8BD95
:1009E000F8B503680400986910230E00170018403A
:1009F0002025002818D1F8BD721C16D0FFF742FE42
:100A0000C01B864201D3002E0ED12022636C1343FB
:100A10006364230041331A702200002342324034C1
:100A2000137001202370E6E723689A692A42E3D015
:100A300010222000DA61DD61FFF786FF2268064997
:100A400053680B4053600423626C134363642300B8
:100A500041331D70E0E7C04600E800FEF8B5040031
:100A60000D001600022723689B693B4201D000203D
:100A7000F8BD320029002000FFF7B2FF002815D191
:100A80006B1CF0D0FFF7FEFD801B854201D3002DCB
:100A9000E9D12022636C13436364230041331A704D
:100AA0002200002342324034137023700120DFE71C
:100AB000F8B504000D001600202723689B693B420F
:100AC00001D00020F8BD320029002000FFF788FF88
:100AD000002813D1FFF7D6FD801B854201D3002DDE
:100AE000EBD12022636C13436364230041331A70FB
:100AF0002200002342324034137023700120E1E7CA
:100B0000F8B504000D001700042623689B693342E2
:100B100011D13A0029002000FFF762FF00281AD106
:100B2000202123689A690A4217D09A69324204D078
:100B3000228D002A01D00020F8BD2021D9615A68F9
:100B40000E4802405A602200002341326364117053
:100B50004034537023700120EEE7FFF793FDC01B74
:100B6000854201D3002DD0D12022636C13436364EE
:100B7000230041331A7040340023EBE700E800FE05
:100B800070B504000120002C3FD0250041352B78A2
:100B9000DBB2002B05D1220040321370200001F09F
:100BA00067FC242301212B702368E0681A68A6687B
:100BB0008A431A6061681A4A0A401A619968194A98
:100BC00011409960012821D18021090231439960A7
:100BD0005868154901435960D96800200A40DA6015
:100BE000616922690A43A16909020A43DA60216A3C
:100BF000E2690A431A60012219680A431A60202335
:100C000060642B7020634234207070BD842109021F
:100C1000314399600228DBD1802109015960D7E76F
:100C2000FFFFFFF0FF7FFFFF00800002F0B505002F
:100C300087B003910492059341352B78040002207C
:100C4000202B14D1230040331A78012A0FD001261B
:100C50001E70FFF717FD8021070000901923320056
:100C600009022000FFF794FE002802D0012007B0FF
:100C7000F0BD21232B702500113B42352B70049BC6
:100C8000606463626B469B8A60636385628D304BF0
:100C9000FF2A21D9FF222285009380235B04039938
:100CA0002000FFF75FFEFF26638D3A000C992000BD
:100CB000002B19D1FFF7FCFE0028D7D12021236893
:100CC000244ED9615A6832405A602300403441337F
:100CD000197028702070CAE7628D92B22285009345
:100CE0008023D2B29B04DAE7FFF7B8FE0028BDD11B
:100CF000636A22681978013391626362638D228D81
:100D0000013B9BB26385013A638D92B22285002B31
:100D1000CAD0002AC8D100970C9B80212000FFF781
:100D200037FE0028A2D1638DFF2B09D98023FF2233
:100D300026855B04009003992000FFF713FEB3E7BC
:100D40008023628D9B0492B22285D2B20090F2E79A
:100D50000020008000E800FEF0B5050087B0039198
:100D60000492059341352B7804000220202B14D1E6
:100D7000230040331A78012A0FD001261E70FFF796
:100D800081FC802107000090192332000902200015
:100D9000FFF7FEFD002802D0012007B0F0BD22239E
:100DA0002B702500123B42352B70049B60646362FC
:100DB0006B469B8A60636385628D314BFF2A21D924
:100DC000FF222285009380235B0403992000FFF714
:100DD000C9FDFF26638D3A000C992000002B19D124
:100DE000FFF766FE0028D7D120212368254ED96160
:100DF0005A6832405A6023004034413319702870D9
:100E00002070CAE7628D92B2228500938023D2B20D
:100E10009B04DAE7FFF774FE0028BDD12368626AFD
:100E20005B6A1370636A228D01336362638D013ADA
:100E3000013B9BB26385638D92B22285002BC9D0A2
:100E4000002AC7D100970C9B80212000FFF7A0FD4E
:100E50000028A1D1638DFF2B09D98023FF2226858D
:100E60005B04009003992000FFF77CFDB2E780232C
:100E7000628D9B0492B22285D2B20090F2E7C04606
:100E80000024008000E800FEF0B504004134227820
:100E90000300D2B20220202A18D11D0040352E783E
:100EA000012E13D01B68223020701E682338864321
:100EB0001E601E68064F3E401E601E68314319606A
:100EC000196808431860002022702870F0BDC046E1
:100ED000FFEFFFFFF0B5050041352A780300D2B2DD
:100EE0000220202A17D11C0040342678012E12D06F
:100EF0001B68223028701E68233886431E601E68D7
:100F0000054F09023E4031431960196808431860D3
:100F100000202A702070F0BDFFF0FFFF0C22184B5C
:100F200010B5D9680A40082A26D00C2A06D0042A0F
:100F30001AD11B68DB0621D4124810BD8A02124860
:100F4000120F825C0902D868890F0131C00304D5F1
:100F50000E485043FFF7E2F8EFE71B68DB0601D5C8
:100F60000B48F6E70748F4E780205B6800021B04A3
:100F70005B0F01339840E0E70448DEE70448DCE714
:100F8000001002400024F400EA26000800127A0053
:100F900000093D00F0B5050087B0002802D101200E
:100FA00007B0F0BD0C23BE4CE668E2681E4080230B
:100FB0005B021A4001920268D20741D42B689B075A
:100FC00000D587E02B68DB0628D5002E00D0D9E0BD
:100FD00023689B0502D5EB69002BE0D06268B1491C
:100FE0006B6A0A401A43626061682A6A0902090A48
:100FF00012060A43626080225B0B013312029A40A0
:101000001300E16800200A06A749120F8A5CD3404A
:10101000A64A1360FFF702FB0028C1D12B681B070B
:1010200000D5E6E02B685B0700D508E12B689B063E
:1010300000D58DE1AB6A002B00D0BCE10020AFE70A
:10104000082E04D00C2E09D1019A002A06D023685C
:101050009B03B3D56B68002BB0D1A0E76A689A42B6
:1010600011D1226813432360FFF70CFB0700802295
:10107000236892021342A1D1FFF704FBC01B64282E
:10108000F5D903208CE7A021C9028A4205D180222C
:101090002168D2020A432260E3E7216884480140C4
:1010A000216021680B400593059B824923680B4012
:1010B0002360002AD8D1FFF7E5FA070080222368D1
:1010C0009202134200D179E7FFF7DCFAC01B6428D3
:1010D000F4D9D6E7EA68042E04D00C2E25D1019B62
:1010E000002B22D123685B0702D5002A00D156E7E6
:1010F00061682B6970481B0201400B430921636042
:1011000023688B4313432360FFF708FFE368664AB5
:101110001B061B0FD35CD840644B18600020FFF700
:101120007DFA002800D14DE73AE72368002A18D05D
:1011300009218B4313432360FFF7A4FA070004221D
:101140002368134207D062682B695B491B020A407F
:101150001343636036E7FFF795FAC01B0228EED908
:101160008FE7012293432360FFF78CFA07000422E4
:101170002368134200D125E7FFF784FAC01B022839
:10118000F5D97EE7EB69002B20D0802322685B0035
:1011900013432360FFF776FA07008022236892004A
:1011A00013420DD063683F4A13406A6A1343636079
:1011B00062682B6A12021B06120A134363602DE752
:1011C000FFF760FAC01B0228E7D95AE723683B4AB9
:1011D00013402360FFF756FA07008022236892002D
:1011E000134200D11AE7FFF74DFAC01B0228F4D9C9
:1011F00047E76A690123002A10D0226D1343236553
:10120000FFF740FA07000222236D134200D009E7DE
:10121000FFF738FAC01B0228F5D932E7226D9A434E
:101220002265FFF72FFA07000222236D134200D137
:10123000F8E6FFF727FAC01B0228F5D921E780233B
:101240000021A26B5B0501911A4204D1A26B1343EA
:10125000A363012301938022194F52003B6813427C
:1012600008D08022AB68520093422BD1226D1343E9
:1012700023654CE080223B68520013433B60FFF73C
:1012800001FA80235B00029003933B68039A1342A8
:10129000E7D1FFF7F7F9029BC01A6428F5D9F0E609
:1012A00000100240FF1FFFFFD226000808000020A8
:1012B000FFFFFEFFFFFFFBFFFFE0FFFFFFFEFFFF63
:1012C00000700040002B16D1236D6C4A134023653B
:1012D000236D6B4A13402365FFF7D4F90700802282
:1012E000236D920013422AD0FFF7CCF9654BC01B47
:1012F0009842F4D9C5E6A021C9008B420BD18023C6
:10130000216DDB000B432365236D1A432265FFF734
:10131000B9F907000EE0236D584A13402365236D89
:10132000574A1340A4E7FFF7ADF9564BC01B98424C
:1013300000D9A6E68022236D92001342F3D0019BD0
:10134000012B00D072E6A36B4F4A1340A3636DE6F6
:10135000A96901234D4A002918D0A1681943A16049
:10136000616B0B4363638023116A9B010B43136220
:10137000FFF788F907000222A368134200D059E65C
:10138000FFF780F9C01B0228F5D97AE6A1689943D6
:10139000A160136A3E490B401362FFF773F907001F
:1013A0000222A368134200D144E6FFF76BF9C01B89
:1013B0000228F5D965E60C2E43D0364A022B2ED1F1
:1013C0002368802613402360FFF75CF90700B6040A
:1013D000236833421DD1296BEB6AE2680B432E4927
:1013E0000A4013436A6B80251343E360802322681D
:1013F0005B0413432360FFF745F90600AD0423683F
:101400002B4200D01AE6FFF73DF9801B0228F6D9DF
:1014100037E6FFF737F9C01B0228D9D931E6236830
:10142000802513402360FFF72DF90600AD042368E3
:101430002B4200D102E6FFF725F9801B0228F6D9DE
:101440001FE61800012B00D1AAE58022E368E96AB3
:1014500052021A4001208A4200D0A1E5F022296BF5
:1014600092031A408A4200D09AE5C020000403404B
:10147000686B181A431E9841C0B291E5FFFEFFFF4A
:10148000FFFBFFFF88130000FFFFFFEF000001409C
:10149000FFDFFFFFFFFFFFFEFFFF02FFF7B5061EA6
:1014A000019101D10120FEBD0122514C0199236817
:1014B00013408B4227D3326893072FD4D30735D4F8
:1014C0000123226801991A40914200D281E03268DA
:1014D000484C530700D584E0130706D5E26833690A
:1014E0004549DB000A401343E360FFF717FDE3685B
:1014F000424A1B061B0FD35CD840414B18600020AA
:10150000FFF78CF8CFE72368019993430B432360DF
:1015100023681340019A9A42C4D1CCE7F0203549A0
:10152000CB688343B0680343CB60C7E7314D726833
:101530002B68022A19D19B03B4D50321EB688B4396
:101540001343EB60FFF79EF873680700022B19D175
:101550000C22EB681340082BB2D0FFF793F8294B0D
:10156000C01B9842F4D903209DE7032A02D19B01B6
:10157000E3D497E7012A02D15B07DED492E79B050B
:10158000DBD48FE7032B0BD10C22EB681340934283
:1015900096D0FFF777F81B4BC01B9842F4D9E2E7CF
:1015A000012B10D00C22EB68134289D0FFF76AF8A8
:1015B000144BC01B9842F5D9D5E7FFF763F8114BE0
:1015C000C01B9842CFD80C22EB681340042BF4D1F7
:1015D00076E722689A43226022681A4200D061E7C7
:1015E00075E7E36808490B40F1680B43E36073E774
:1015F0000020024000100240FFC7FFFFD226000873
:101600000800002088130000FFF8FFFF044B054A84
:10161000DB685B055B0FD35C034A1068D8407047FA
:1016200000100240E226000808000020044B054A92
:10163000DB689B045B0FD35C034A1068D84070479B
:1016400000100240E2260008080000208223F7B5BF
:1016500002681B0105001A4247D0802300215F4C1D
:101660005B05A26B00911A4204D1A26B1343A363E2
:101670000123009380275A4E7F0033683B426DD090
:101680006968C02208002368920313401040834217
:1016900003D1A8680240934209D0C0230A009B02EC
:1016A0001A409A4203D1236801209B0366D4C022CA
:1016B000236D9202134062D16968C0230A009B0225
:1016C0001A409A4207D1236846480340C02080034D
:1016D00001400B432360236D1A43009B2265012BBD
:1016E00003D1A36B404A1340A3632B68DA0706D5E6
:1016F00003203A49CA6C8243E8680243CA649A07E5
:1017000006D50C203549CA6C824328690243CA6455
:101710005A0706D531493548CA6C02406869024308
:10172000CA641A0706D52D493148CA6C0240A86917
:101730000243CA645A0606D528492E48CA6C02409C
:10174000286A0243CA6400201B0617D5234A2A4987
:10175000D36C0B40E9690B43D3640FE033683B4320
:101760003360FEF78FFF019033683B4288D1FEF76C
:1017700089FF019BC01A6428F6D90320FEBD1140E1
:101780008B4202D02968890608D4A9680A4093428E
:1017900000D191E72B681B0500D48DE78022216DD5
:1017A000206D120302432265226D144B14480B4036
:1017B000024022652365CB0500D47DE7FEF762FF7A
:1017C00080270600BF00236D3B4200D074E7FEF780
:1017D00059FF0C4B801B9842F5D9CEE70010024010
:1017E00000700040FFFFCFFFFFFFFFEFFFF3FFFFA1
:1017F000FFCFFFFFFFFFFFFBFFFFF3FFFFFFFCFF3C
:10180000FFFFF7FF88130000036807491A680A40C2
:101810001A609A682331FF318A439A6020238367D4
:10182000002303667047C046DFFEFFFF7047704726
:10183000F8B503680400DA6918689E6811070AD1D0
:1018400020210A4200D16AE0084268D0236E2000BD
:10185000002B5AD15AE0012135000D4003D19027C9
:101860007F0038425BD00A4205D0C60503D5196215
:10187000E66F3143E16702210A4206D0002D04D011
:101880001962E66F49183143E16704210A4206D024
:10189000002D04D01962E66F02393143E167110768
:1018A00008D5810601D4002D04D008211962E36F08
:1018B0001943E167E36F002B28D020231A4206D09A
:1018C000184204D0236E002B01D0200098472368D3
:1018D000E56F9B6820005B0602D408231D401AD0E8
:1018E000FFF792FF402123689A680A420FD09A6856
:1018F000E06E8A439A60002809D01A4B8363FEF792
:1019000035FF002802D0E06E836B9847F8BD2000B9
:10191000FFF78DFFFAE7FFF78AFFE567F6E780211B
:1019200049030A4206D0750204D51962200000F06E
:101930003DFAEBE780210A4203D0084201D0636EF2
:1019400085E740210A42E1D00842DFD01A68200032
:101950008A431A602023636700236366FFF766FFEC
:10196000D4E7C04669190008806A0023020010B558
:101970005A321380083A1380FFF759FF10BD000058
:10198000F8B504002569A26803682A436569C1693E
:101990002A431868794D0A43284002431A605A685E
:1019A0007748784D0240E06802435A60A069AB4234
:1019B00001D0226A10439A68734E324002439A6003
:1019C000724A934213D10322714BDB6C1340714A6C
:1019D000D05C80231B02994200D092E008281ED8D8
:1019E000FEF792FB5860631D841D1D1D87006A4A27
:1019F000934205D10C22664BDB6C1340674AE7E744
:101A0000AB4200D0B3E0C0218020614A0901D36C11
:101A1000C0000B40834238D003D8002B0AD00125E8
:101A20000DE08020000183420ED08B42F7D1802050
:101A300000020DE0FFF7EAFD0025A84208D10023CF
:101A4000280023666366F8BD1368DB0620D554487A
:101A5000032263685A438242E1D81A038242DED3EA
:101A60000027020E01025E0889197A410800110060
:101A70001A003B00FEF7C8FC4A4BC2184A4B9A4278
:101A8000CDD823683D00D860D9E7FFF747FAD3E700
:101A90004648DDE7FFF7BAFD636840005B08C01801
:101AA00061680BE0FFF7C2FDF6E71025384B61686F
:101AB0001A684808154006D03D4BC018FEF72EFBAB
:101AC000002583B204E03B4BC018FEF727FB83B22E
:101AD0001900394810398142A1D80F2118001B077D
:101AE00088435B0F21680343CB60A8E7FFF716FA32
:101AF000D2E76368580880235B02D0E70125002302
:101B0000E6E7082837D8FEF7FFFA050C0F362A3625
:101B100036362D00FFF77AFD63685B08C0186168F0
:101B20000BE0FFF783FDF7E71025194B61681A6892
:101B3000480815400DD01A4BC018FEF7EFFA0025E3
:101B400083B219001C481039814200D967E7216827
:101B5000CAE7164BC018FEF7E1FA83B2F1E7FFF7C8
:101B6000DDF9D9E76368580880231B02D6E7802394
:101B70001B029942C2D001250023E2E7F369FFEF7F
:101B8000FFCFFFFF00480040FFF4FFFF0038014097
:101B900000100240C126000800440040C52600088D
:101BA00000093D0000FDFFFFFFFC0F000024F400D2
:101BB00000127A000048E801EFFF0000436A30B5E8
:101BC000DA0706D50168284C4A682240846A224315
:101BD0004A609A0706D50168244C4A682240C46AC4
:101BE00022434A605A0706D50168214C4A682240C0
:101BF000046B22434A601A0706D501681D4C4A68E7
:101C00002240446B22434A60DA0606D501681A4C2A
:101C10008A682240846B22438A609A0606D501684E
:101C2000164C8A682240C46B22438A605A0610D53B
:101C30000168134D4A68046C2A4022434A6080229E
:101C40005203944205D14A680E4C2240446C224310
:101C50004A601B0606D502680B4953680B40816C2D
:101C60000B43536030BDC046FFFFFDFFFFFFFEFF8B
:101C7000FFFFFBFFFF7FFFFFFFEFFFFFFFDFFFFF28
:101C8000FFFFEFFFFFFF9FFFFFFFF7FFF8B5040027
:101C90000E0015001F002268D36933409B1B594278
:101CA0004B41AB4201D000201BE0069B0133F3D037
:101CB000FEF7E8FC069BC01B834201D3002BEAD150
:101CC000236808491A6803200A401A609A68A331F9
:101CD000FF318A439A6020236367A367002370342F
:101CE0002370F8BD5FFEFFFF73B500260400C667D2
:101CF000FEF7C8FC236805001B681B0715D4236882
:101D00001B685B070AD580210E4B00220093C90394
:101D10002B002000FFF7BAFF002811D1202300205C
:101D20006367A367703420700BE08021054B32009D
:101D30000093890303002000FFF7A8FF0028DED0EE
:101D4000032076BDFFFFFF0110B5041E01D1012065
:101D500010BD436F002B04D102007032137000F0ED
:101D6000B5FB2423012122686367136820008B439D
:101D70001360FFF705FE0128E9D0636A002B02D04B
:101D80002000FFF71BFF236807495A6820000A401C
:101D90002A215A609A688A439A60012219680A4384
:101DA0001A60FFF7A1FFD3E7FFB7FFFF70470000FE
:101DB00070B58026124D3602310028000022114CE9
:101DC000FEF7B0FD0A20FEF763FC00222021200070
:101DD000FEF7A8FD0320FEF75BFC3100280001227E
:101DE000FEF7A0FD0520FEF753FC01222021200074
:101DF000FEF798FDFA208000FEF74AFC70BDC04651
:101E000000080050000400507FB51422002101A8F2
:101E100000F02DFC80231B020193094B01A90293C2
:101E2000022308480493FEF7C7FC00220720110094
:101E3000FEF73EFC0720FEF76BFC07B000BDC04676
:101E400000002110000800507FB50F25FD2302007F
:101E5000FA206D442B70184C8BB218498000098809
:101E600000902000FEF7E2FE220041321378202B82
:101E7000FCD1134B2A001988FA239B000093200001
:101E80000123FEF769FF220041321378202BFCD199
:101E9000FA26B6002878FE2801D004B070BD2A00CA
:101EA00000960123AB212000FEF756FF22004132AD
:101EB0001378202BFCD1EDE738000020040000202F
:101EC0000200002010B5264C86B0210003220D31FF
:101ED00001A800F0C3FB032101A8FFF7B5FF00280C
:101EE00003D00124200006B010BD210003221031D0
:101EF00002A800F0B3FB032102A8FFF7A5FF00280A
:101F0000EFD121000322133103A800F0A7FB032126
:101F100003A8FFF799FF0028E3D11430FEF7B8FBC0
:101F200021000322163104A800F098FB032104A825
:101F3000FFF78AFF0028D4D12830FEF7A9FB210043
:101F40000322193105A800F089FB032105A8FFF73A
:101F50007BFF041EC5D12820FEF79AFBC2E7C046CE
:101F60009826000873B5FA25174C1600174AAD00DD
:101F70008BB21188020000952000FEF757FE220068
:101F800041321378202BFCD1114B320019882000EC
:101F900000950423FEF7E0FE220041321378202B47
:101FA000FCD1FA25AD003378FE2B00D073BD320092
:101FB00000950423AB212000FEF7CEFE2200413223
:101FC0001378202BFCD1EEE738000020040000201D
:101FD000020000207FB5134E032531002A00223174
:101FE00002A800F03BFB310001AC253102222000A9
:101FF00000F034FB2200290002A8FFF7B3FF23788A
:10200000002B0DD18022637803A81343403A02705D
:102010000421373A637045708270C370FFF714FF74
:102020007FBDC0469826000830B51B4D032429000B
:1020300085B02231220001A800F010FB2900022205
:102040002531684600F00AFB6A46210001A8FFF727
:1020500089FF6B461B78002B1BD16B467F225B7878
:1020600003A813406A465370402204210270373A95
:1020700044708270C370FFF7E7FE002809D1290081
:102080002200193102A800F0E9FA210002A8FFF7A6
:10209000DBFE05B030BDC0469826000837B51500F8
:1020A000114A8BB21188FA22104C92000092020061
:1020B0002000FEF7BBFD220041321378202BFCD11B
:1020C00006220B4B20001B7841345343094A01334D
:1020D0001188FA22920000922A00FEF73DFE237832
:1020E000202BFCD137BDC046040000203800002062
:1020F00001000020020000200023F0B5474E89B007
:1021000002AD253601AF02223100040028003B70E9
:102110007B7000F0A3FA2A0002213800FFF722FFAB
:102120002B78002B5DD16A78082A5AD103AF04AD11
:102130000A323A703100022228007B7000F08EFAD9
:1021400038002A000221FFF70DFF2F78002F48D119
:102150006A78334B31491A702731022205A800F002
:102160007DFA2200022105A8FFF798FF122306AD91
:102170006F7007AF0222310038002B7000F06EFA4A
:102180003A0002212800FFF7EDFE3B78002B28D112
:10219000244B254E1B78254F254D072B24D16078E5
:1021A000A378000218430A21FEF742F8E378308052
:1021B00020793B706379000218430A21FEF738F852
:1021C000A3791C4A288013703388333BCB2B08D863
:1021D0002B88333B312B04D8FFF7FCFE0322164B30
:1021E0001A70012009B0F0BD607BA37B0002184388
:1021F0000A21FEF71DF8E37B3080207C3B70637C76
:10220000000218430A21FEF713F8A37C094A28802C
:102210001370E27C094B1A70D6E7C0469826000876
:1022200001000020000000202C00002028000020D9
:1022300030000020290000202E0000202A0000206D
:1022400010B59CB0382200210EA800F010FA14221C
:102250000021684600F00BFA2422002105A800F0B6
:1022600006FA1449144A0B6800241A4080231B0103
:1022700013430B6010230E930F3B1593A0230EA85E
:102280001B02179316941894FEF784FE0F23210067
:10229000684600930194029403940494FFF7FEF8B7
:1022A000092305A8059308940B94FFF7CFF91CB0F8
:1022B00010BDC04600700040FFE7FFFF70B588B05A
:1022C000FEF7C4F9FFF7BCFF1422002103A800F0B9
:1022D000CEF904200126444BA024D96A24020143EC
:1022E000D9620221DA6A02400092009ADA6A3F4813
:1022F0003243DA62DA6A32400192019ADA6A0A43B8
:10230000DA62DB6A00220B4002932100029BFEF797
:1023100009FB320020213648FEF704FB0394002419
:1023200003A93248049605940694FEF745FAA020C6
:10233000304B03A9C005049303960594FEF73CFABD
:10234000202303A92A480393049605940694FEF7D4
:1023500033FA220021000520FEF7AAF90520FEF736
:10236000D7F9254D254B28002B60E123DB006B605E
:10237000AC60EE602C616C61AC61EC612C62FEF7CC
:10238000FFFB21002800FEF77FFD21002800FEF75B
:10239000A1FD1B481B4B8460036096239B01436097
:1023A0000C23C460436104618461C46104624462BB
:1023B000FFF7CAFCFFF7FCFCFFF784FDB04200D139
:1023C000C046FA24FFF720FDA4000F4B1A78032A19
:1023D00006D1002220001A70FEF75AF9FFF724FEFA
:1023E0000A20FEF755F9F0E70010024000080050FF
:1023F000000400500000211038000020005400406C
:1024000084000020003801402E000020802010B5FC
:102410000002FEF78DFA10BDB0B5040000AF072032
:10242000FEF780F980231B029C420BD16C46084BBF
:102430001B780733DB08DB00E31A9D466846FFF78D
:102440005BFEA5460720FEF763F9BD46B0BDC0465A
:10245000000000200122054B596B0A435A63802279
:10246000996B52050A439A637047C04600100240B8
:1024700010B5040086B01422002101A800F0F7F87E
:102480000F4B22689A4219D102210E4C0E48E26A83
:102490000A43E262E36A0B400093009BC02301936E
:1024A000AE3B02930F3B049301A9023B0593FEF759
:1024B00083F98023A26B9B031343A36306B010BD73
:1024C00000540040001002400004005010B5040009
:1024D00086B01422002101A800F0C9F8144B22682C
:1024E0009A4223D18022134BD201596BA0200A4378
:1024F00001215A63DA6AC0050A43DA62DB6A0B40DB
:102500000093009BC023DB000193022302935B181E
:1025100004935B1801A90593FEF74EF900221B20D6
:102520001100FEF7C5F81B20FEF7F2F806B010BD4B
:1025300000380140001002407047FEE770477047C6
:1025400010B5FEF797F810BD10B50120FEF7F0F9B1
:1025500010BD000010B50248FFF76AF910BDC04673
:10256000840000208022104B520019680A431A6030
:10257000DA680E490A40DA601A680D490A400121FA
:102580001A609A688A439A601A680A490A401A606F
:10259000DA6809490A40DA6000221A618022074B92
:1025A00012059A607047C046001002400C40FF8838
:1025B000F6FFF6FEFFFFFBFFFFFF02FF00ED00E06E
:1025C0000D488546002103E00C4B5B584350043115
:1025D0000B480C4B42189A42F6D30B4A02E00023F8
:1025E00013600432094B9A42F9D3FFF7BBFF00F0A6
:1025F00011F8FFF763FEFEE7002000200427000823
:10260000000000200C0000200C000020040100202D
:10261000FEE7000070B500260C4D0D4C641BA410A5
:10262000A64209D1002600F02BF80A4D0A4C641B83
:10263000A410A64205D170BDB300EB5898470136EF
:10264000EEE7B300EB5898470136F2E7FC260008A6
:10265000FC260008FC26000800270008002310B50F
:102660009A4200D110BDCC5CC4540133F8E703009A
:102670008218934200D1704719700133F9E70000C6
:10268000F8B5C046F8BC08BC9E467047F8B5C046D1
:08269000F8BC08BC9E4670472F
:10269800400309400100021000041000031000026A
:1026A8001001055200014403015202015202004484
:1026B8000300410309FDFD12010104020800101086
:1026C8001004101010021010100800000000000084
:1026D80000000102030406070809000000000102C7
:0C26E8000304030406080C101820300046
:0826F40054DDFF7F010000002E
:0426FC00E9000008E9
:04270000C10000080C
:0C27040064FFAB00AA00000000002000F1
:04000005080025C109
:00000001FF
