:020000040800F2
:1000000000200020C5190008591900085B190008D4
:1000100000000000000000000000000000000000E0
:100020000000000000000000000000005D19000852
:1000300000000000000000005F19000861190008BE
:10004000151A0008151A0008151A0008151A0008D4
:10005000151A0008151A0008151A00088914000856
:10006000151A0008151A0008151A0008151A0008B4
:10007000151A0008151A000800000000151A0008DB
:1000800000000000151A0008000000000000000039
:10009000151A000800000000151A0008151A0008BB
:1000A000151A0008151A0008151A0008151A000874
:1000B000151A0008151A0008151A0008151A000864
:1000C00010B5064C2378002B07D1054B002B02D02E
:1000D000044800E000BF0123237010BD040000208D
:1000E00000000000841A0008044B10B5002B03D058
:1000F0000349044800E000BF10BDC04600000000F6
:1001000008000020841A0008002243088B4274D3A0
:1001100003098B425FD3030A8B4244D3030B8B4208
:1001200028D3030C8B420DD3FF22090212BA030C11
:100130008B4202D31212090265D0030B8B4219D3F2
:1001400000E0090AC30B8B4201D3CB03C01A524112
:10015000830B8B4201D38B03C01A5241430B8B425A
:1001600001D34B03C01A5241030B8B4201D30B0343
:10017000C01A5241C30A8B4201D3CB02C01A52416A
:10018000830A8B4201D38B02C01A5241430A8B422D
:1001900001D34B02C01A5241030A8B4201D30B0216
:1001A000C01A5241CDD2C3098B4201D3CB01C01A30
:1001B000524183098B4201D38B01C01A524143093A
:1001C0008B4201D34B01C01A524103098B4201D328
:1001D0000B01C01A5241C3088B4201D3CB00C01A95
:1001E000524183088B4201D38B00C01A524143080D
:1001F0008B4201D34B00C01A5241411A00D2014632
:10020000524110467047FFE701B5002000F006F8A4
:1002100002BDC0460029F7D076E770477047C04658
:10022000FA210A4B70B5890005001868FFF76CFFCA
:1002300000F084F804000120002C05D102382200CF
:10024000290000F037F8200070BDC04600000020F3
:100250004023084A10B5116800200B431360FFF7D4
:10026000DFFF041E03D101F039FB200010BD012483
:10027000FBE7C04600200240024A136801331360C6
:100280007047C04620000020014B18687047C046E8
:100290002000002070B50400FFF7F6FF631C5A1E13
:1002A00093410500E418FFF7EFFF401B8442FAD8A2
:1002B00070BD000070B58901002814DA0F23C0B2A8
:1002C0000340083B114A9B089B009B1803221040E7
:1002D0009040FC321500114085408140DC69AC4300
:1002E0002143D96170BD032583082840A840FC350F
:1002F0002E00074A9B009B18C0228640294081405F
:1003000092009C58B44321439950EBE700ED00E084
:1003100000E100E01F2318401E3B8340014A1360A8
:100320007047C04600E100E01F2318401E3B834099
:10033000014AD3677047C04604E100E0094A431E02
:10034000012093420DD8C021074A08485360036A30
:1003500009061B021B0A0B4303620020072390605F
:1003600013607047FFFFFF0010E000E000ED00E0C9
:10037000F0B5534A0B688218541EA24185B0019310
:10038000002305320392019ADA4001D105B0F0BD95
:1003900001259D40019A2A40009200D18DE04A68D3
:1003A00094461022644694432200013C022A1FD145
:1003B00007240F271C40A400A740DA0892008218E7
:1003C000166ABE430F69A7403E43166203245E00CF
:1003D000B4408268A243CC68B44022438260624643
:1003E000D206D20F9A404468AC432243426001E0F7
:1003F000012CEBD9032634005D00AC406246E44397
:100400003240AA40076827403A430260C26814405D
:100410008A68AA4014436246C460D2004DD50125C3
:10042000284C0F27626B2A431D003540AD00AF40BA
:100430006263254A9C08A400A418A268BA43A027B6
:100440000292FF050022B8420CD0204F0132B84280
:1004500008D01F4F0132B84204D01E4F3200B842BC
:1004600000D0039AAA406746029D2A43A2601A4A16
:10047000009C1668009DE4433543FF0301D435001A
:100480002540674615605668009D3543BF0301D47B
:1004900035002540674655609668009D3543FF024C
:1004A00001D43500254067469560D568009E2E43EF
:1004B000BF0201D425402E00D660013363E7C04659
:1004C00000E4FFAF001002400000014000040050B3
:1004D00000080050000C005000040140002A01D028
:1004E000816170478162FCE7044B10B55A69104284
:1004F00002D0586101F0DCF910BDC0460004014093
:1005000003689A69920701D500229A6201229969CB
:10051000114202D199690A439A61704770B5049EED
:1005200089053343890D194380230468DB00700D6E
:100530001840044B6568120418438543114329434E
:10054000616070BDFF63FF03F8B504000E00170083
:100550001D002268936933409B1B59424B41BB42AB
:1005600001D0002017E06B1CF4D0FFF78DFE069B36
:10057000C01A854201D3002DEBD12022636C0120EB
:1005800013436364230041331A7022000023423274
:10059000403413702370F8BDF8B5036804009869FF
:1005A00010230E00170018402025002818D1F8BD90
:1005B000721C16D0FFF768FEC01B864201D3002EC6
:1005C0000ED12022636C13436364230041331A70FD
:1005D0002200002342324034137001202370E6E7EA
:1005E00023689A692A42E3D010222000DA61DD6193
:1005F000FFF786FF2268064953680B4053600423C7
:10060000626C13436364230041331D70E0E7C0460E
:1006100000E800FEF8B504000D001600022723686C
:100620009B693B4201D00020F8BD32002900200028
:10063000FFF7B2FF002815D16B1CF0D0FFF724FEA6
:10064000801B854201D3002DE9D12022636C134326
:100650006364230041331A70220000234232403485
:10066000137023700120DFE7F8B504000D001600B9
:10067000202723689B693B4201D00020F8BD32004F
:1006800029002000FFF788FF002813D1FFF7FCFDA9
:10069000801B854201D3002DEBD12022636C1343D4
:1006A0006364230041331A70220000234232403435
:1006B000137023700120E1E7F8B504000D00170066
:1006C000042623689B69334211D13A002900200097
:1006D000FFF762FF00281AD1202123689A690A4295
:1006E00017D09A69324204D0228D002A01D000200E
:1006F000F8BD2021D9615A680E4802405A60220094
:100700000023413263641170403453702370012020
:10071000EEE7FFF7B9FDC01B854201D3002DD0D114
:100720002022636C13436364230041331A70403406
:100730000023EBE700E800FE70B504000120002C68
:100740003FD0250041352B78DBB2002B05D12200AC
:1007500040321370200001F0CFF8242301212B70C8
:100760002368E0681A68A6688A431A6061681A4AB2
:100770000A401A619968194A11409960012821D1EB
:100780008021090231439960586815490143596035
:10079000D96800200A40DA60616922690A43A169C8
:1007A00009020A43DA60216AE2690A431A600122F7
:1007B00019680A431A60202360642B702063423456
:1007C000207070BD84210902314399600228DBD179
:1007D000802109015960D7E7FFFFFFF0FF7FFFFF8E
:1007E00000800002F0B5050087B0039104920593E4
:1007F00041352B7804000220202B14D123004033F4
:100800001A78012A0FD001261E70FFF73DFD8021C6
:10081000070000901923320009022000FFF794FE20
:10082000002802D0012007B0F0BD21232B70250045
:10083000113B42352B70049B606463626B469B8A5C
:1008400060636385628D304BFF2A21D9FF222285A8
:10085000009380235B0403992000FFF75FFEFF26CF
:10086000638D3A000C992000002B19D1FFF7FCFE94
:100870000028D7D120212368244ED9615A683240FC
:100880005A60230040344133197028702070CAE741
:10089000628D92B2228500938023D2B29B04DAE764
:1008A000FFF7B8FE0028BDD1636A226819780133CA
:1008B00091626362638D228D013B9BB26385013A35
:1008C000638D92B22285002BCAD0002AC8D100972E
:1008D0000C9B80212000FFF737FE0028A2D1638DFA
:1008E000FF2B09D98023FF2226855B040090039902
:1008F0002000FFF713FEB3E78023628D9B0492B2C2
:100900002285D2B20090F2E70020008000E800FECD
:10091000F0B5050087B003910492059341352B781B
:1009200004000220202B14D1230040331A78012A1E
:100930000FD001261E70FFF7A7FC80210700009052
:100940001923320009022000FFF7FEFD002802D023
:10095000012007B0F0BD22232B702500123B423549
:100960002B70049B606463626B469B8A6063638543
:10097000628D314BFF2A21D9FF22228500938023EB
:100980005B0403992000FFF7C9FDFF26638D3A0041
:100990000C992000002B19D1FFF766FE0028D7D153
:1009A00020212368254ED9615A6832405A602300BD
:1009B00040344133197028702070CAE7628D92B2BA
:1009C000228500938023D2B29B04DAE7FFF774FEFE
:1009D0000028BDD12368626A5B6A1370636A228D46
:1009E00001336362638D013A013B9BB26385638D82
:1009F00092B22285002BC9D0002AC7D100970C9B48
:100A000080212000FFF7A0FD0028A1D1638DFF2BDE
:100A100009D98023FF2226855B04009003992000DA
:100A2000FFF77CFDB2E78023628D9B0492B22285A2
:100A3000D2B20090F2E7C0460024008000E800FE39
:100A4000F0B50400413422780300D2B20220202AFB
:100A500018D11D0040352E78012E13D01B6822308E
:100A600020701E68233886431E601E68064F3E4075
:100A70001E601E6831431960196808431860002021
:100A800022702870F0BDC046FFEFFFFFF0B50500F3
:100A900041352A780300D2B20220202A17D11C0047
:100AA00040342678012E12D01B68223028701E6830
:100AB000233886431E601E68054F09023E403143BD
:100AC000196019680843186000202A702070F0BD72
:100AD000FFF0FFFF0C22184B10B5D9680A40082A16
:100AE00026D00C2A06D0042A1AD11B68DB0621D492
:100AF000124810BD8A021248120F825C0902D8689F
:100B0000890F0131C00304D50E485043FFF7FCFAAA
:100B1000EFE71B68DB0601D50B48F6E70748F4E76B
:100B200080205B6800021B045B0F01339840E0E704
:100B30000448DEE70448DCE7001002400024F4002B
:100B4000C41A000800127A0000093D00F0B5050043
:100B500087B0002802D1012007B0F0BD0C23BE4CA5
:100B6000E668E2681E4080235B021A400192026838
:100B7000D20741D42B689B0700D587E02B68DB06A2
:100B800028D5002E00D0D9E023689B0502D5EB695B
:100B9000002BE0D06268B1496B6A0A401A43626078
:100BA00061682A6A0902090A12060A436260802201
:100BB0005B0B013312029A401300E16800200A0621
:100BC000A749120F8A5CD340A64A1360FFF728FB9F
:100BD0000028C1D12B681B0700D5E6E02B685B0716
:100BE00000D508E12B689B0600D58DE1AB6A002B90
:100BF00000D0BCE10020AFE7082E04D00C2E09D1B4
:100C0000019A002A06D023689B03B3D56B68002B9A
:100C1000B0D1A0E76A689A4211D1226813432360D9
:100C2000FFF732FB07008022236892021342A1D112
:100C3000FFF72AFBC01B6428F5D903208CE7A0210D
:100C4000C9028A4205D180222168D2020A43226069
:100C5000E3E7216884480140216021680B40059347
:100C6000059B824923680B402360002AD8D1FFF7F7
:100C70000BFB0700802223689202134200D179E720
:100C8000FFF702FBC01B6428F4D9D6E7EA68042EFC
:100C900004D00C2E25D1019B002B22D123685B07A9
:100CA00002D5002A00D156E761682B6970481B0203
:100CB00001400B430921636023688B431343236086
:100CC000FFF708FFE368664A1B061B0FD35CD8409A
:100CD000644B18600020FFF7A3FA002800D14DE70D
:100CE0003AE72368002A18D009218B431343236075
:100CF000FFF7CAFA070004222368134207D062688C
:100D00002B695B491B020A401343636036E7FFF718
:100D1000BBFAC01B0228EED98FE701229343236060
:100D2000FFF7B2FA070004222368134200D125E737
:100D3000FFF7AAFAC01B0228F5D97EE7EB69002B62
:100D400020D0802322685B0013432360FFF79CFAC6
:100D5000070080222368920013420DD063683F4A47
:100D600013406A6A1343636062682B6A12021B06AF
:100D7000120A134363602DE7FFF786FAC01B0228AF
:100D8000E7D95AE723683B4A13402360FFF77CFA10
:100D90000700802223689200134200D11AE7FFF770
:100DA00073FAC01B0228F4D947E76A690123002AB5
:100DB00010D0226D13432365FFF766FA0700022265
:100DC000236D134200D009E7FFF75EFAC01B02282B
:100DD000F5D932E7226D9A432265FFF755FA0700ED
:100DE0000222236D134200D1F8E6FFF74DFAC01B33
:100DF0000228F5D921E780230021A26B5B05019130
:100E00001A4204D1A26B1343A363012301938022EE
:100E1000194F52003B68134208D08022AB68520041
:100E200093422BD1226D134323654CE080223B6813
:100E3000520013433B60FFF727FA80235B000290C8
:100E400003933B68039A1342E7D1FFF71DFA029B15
:100E5000C01A6428F5D9F0E600100240FF1FFFFF1A
:100E6000B41A000800000020FFFFFEFFFFFFFBFF99
:100E7000FFE0FFFFFFFEFFFF00700040002B16D1D8
:100E8000236D6C4A13402365236D6B4A1340236521
:100E9000FFF7FAF907008022236D920013422AD04F
:100EA000FFF7F2F9654BC01B9842F4D9C5E6A021C3
:100EB000C9008B420BD18023216DDB000B432365DE
:100EC000236D1A432265FFF7DFF907000EE0236D5B
:100ED000584A13402365236D574A1340A4E7FFF790
:100EE000D3F9564BC01B984200D9A6E68022236D49
:100EF00092001342F3D0019B012B00D072E6A36B4A
:100F00004F4A1340A3636DE6A96901234D4A0029A6
:100F100018D0A1681943A160616B0B436363802300
:100F2000116A9B010B431362FFF7AEF9070002221F
:100F3000A368134200D059E6FFF7A6F9C01B0228A8
:100F4000F5D97AE6A1689943A160136A3E490B403E
:100F50001362FFF799F907000222A368134200D138
:100F600044E6FFF791F9C01B0228F5D965E60C2E7F
:100F700043D0364A022B2ED12368802613402360AB
:100F8000FFF782F90700B604236833421DD1296BAD
:100F9000EB6AE2680B432E490A4013436A6B8025D3
:100FA0001343E360802322685B0413432360FFF74D
:100FB0006BF90600AD0423682B4200D01AE6FFF758
:100FC00063F9801B0228F6D937E6FFF75DF9C01BED
:100FD0000228D9D931E62368802513402360FFF722
:100FE00053F90600AD0423682B4200D102E6FFF757
:100FF0004BF9801B0228F6D91FE61800012B00D1FF
:10100000AAE58022E368E96A52021A4001208A4276
:1010100000D0A1E5F022296B92031A408A4200D049
:101020009AE5C02000040340686B181A431E9841DB
:10103000C0B291E5FFFEFFFFFFFBFFFF881300003A
:10104000FFFFFFEF00000140FFDFFFFFFFFFFFFE9C
:10105000FFFF02FFF7B5061E019101D10120FEBD81
:101060000122514C0199236813408B4227D33268E7
:1010700093072FD4D30735D40123226801991A404E
:10108000914200D281E03268484C530700D584E099
:10109000130706D5E26833694549DB000A4013436C
:1010A000E360FFF717FDE368424A1B061B0FD35CA2
:1010B000D840414B18600020FFF7B2F8CFE7236813
:1010C000019993430B43236023681340019A9A428A
:1010D000C4D1CCE7F0203549CB688343B0680343E3
:1010E000CB60C7E7314D72682B68022A19D19B0388
:1010F000B4D50321EB688B431343EB60FFF7C4F8CF
:1011000073680700022B19D10C22EB681340082BDF
:10111000B2D0FFF7B9F8294BC01B9842F4D903208D
:101120009DE7032A02D19B01E3D497E7012A02D16C
:101130005B07DED492E79B05DBD48FE7032B0BD153
:101140000C22EB681340934296D0FFF79DF81B4B9F
:10115000C01B9842F4D9E2E7012B10D00C22EB68B7
:10116000134289D0FFF790F8144BC01B9842F5D971
:10117000D5E7FFF789F8114BC01B9842CFD80C2256
:10118000EB681340042BF4D176E722689A4322607F
:1011900022681A4200D061E775E7E36808490B400E
:1011A000F1680B43E36073E7002002400010024047
:1011B000FFC7FFFFB41A00080000002088130000DA
:1011C000FFF8FFFF8223F7B502681B0105001A42F2
:1011D00047D0802300215F4C5B05A26B00911A422F
:1011E00004D1A26B1343A3630123009380275A4EBB
:1011F0007F0033683B426DD06968C02208002368D5
:10120000920313401040834203D1A86802409342E6
:1012100009D0C0230A009B021A409A4203D12368D6
:1012200001209B0366D4C022236D9202134062D139
:101230006968C0230A009B021A409A4207D12368BA
:1012400046480340C020800301400B432360236DC8
:101250001A43009B2265012B03D1A36B404A134024
:10126000A3632B68DA0706D503203A49CA6C824388
:10127000E8680243CA649A0706D50C203549CA6C4F
:10128000824328690243CA645A0706D53149354862
:10129000CA6C024068690243CA641A0706D52D4920
:1012A0003148CA6C0240A8690243CA645A0606D58E
:1012B00028492E48CA6C0240286A0243CA640020AA
:1012C0001B0617D5234A2A49D36C0B40E9690B4307
:1012D000D3640FE033683B433360FEF7D5FF0190E2
:1012E00033683B4288D1FEF7CFFF019BC01A6428C8
:1012F000F6D90320FEBD11408B4202D02968890631
:1013000008D4A9680A40934200D191E72B681B05D5
:1013100000D48DE78022216D206D120302432265E7
:10132000226D144B14480B40024022652365CB0507
:1013300000D47DE7FEF7A8FF80270600BF00236DDD
:101340003B4200D074E7FEF79FFF0C4B801B984296
:10135000F5D9CEE70010024000700040FFFFCFFF3C
:10136000FFFFFFEFFFF3FFFFFFCFFFFFFFFFFFFBDD
:10137000FFFFF3FFFFFFFCFFFFFFF7FF88130000F5
:1013800010B59CB0382200210EA800F072FB142288
:101390000021684600F06DFB2422002105A800F022
:1013A00068FB1349134A0B6800241A4080231B0171
:1013B00013430B6010230E930F3B1593A0230EA82D
:1013C0001B02179316941894FFF7C0FB0F232100FC
:1013D000684600930194029403940494FFF73AFE44
:1013E000082305A805930B94FFF7ECFE1CB010BD75
:1013F00000700040FFE7FFFF70B58026A025360291
:10140000ED053100280000220F4CFFF767F80A2095
:10141000FEF740FF002220212000FFF75FF80320A5
:10142000FEF738FF310028000122FFF757F80520AA
:10143000FEF730FF012220212000FFF74FF8FA20AD
:101440008000FEF727FF70BD000400507FB5142216
:10145000002101A800F00DFB80231B020193094B22
:10146000A0200293022301A9C0050493FEF780FF88
:10147000002207201100FEF71DFF0720FEF74AFF9C
:1014800007B000BD00002110802010B50002FFF75A
:101490002BF810BDF0B50B25FF23934E89B0032226
:1014A00031006D4403A82B7000F0DAFAFA238F4C58
:1014B0009B00009303AA0323AA212000FFF792F9BF
:1014C000220041321378202BFCD1DF332B70FA231A
:1014D0009B0000932A000123AB212000FFF718FA9C
:1014E000220041321378202BFCD1FA27BF002B7841
:1014F000FE2B04D0002B0FD0012009B0F0BD2A0034
:1015000000970123AB212000FFF702FA22004132AD
:101510001378202BFCD1EAE7F11C032204A800F089
:101520009FFAFA239B00009304AA0323AA21200018
:10153000FFF758F9220041321378202BFCD1DF331A
:101540002B70FA239B0000932A000123AB2120007B
:10155000FFF7DEF9220041321378202BFCD1FA2765
:10156000BF002B78FE2B00D18AE0002BC4D1B11D27
:10157000032205A800F074FAFA239B00009305AA41
:101580000323AA212000FFF72DF92200413213780E
:10159000202BFCD1DF332B70FA239B0000932A0011
:1015A0000123AB212000FFF7B3F922004132137869
:1015B000202BFCD1FA27BF002B78FE2B6DD0002BFF
:1015C0009AD131000322093106A800F049FAFA2322
:1015D0009B00009306AA0323AA212000FFF702F92B
:1015E000220041321378202BFCD1DF332B70FA23F9
:1015F0009B0000932A000123AB212000FFF788F90C
:10160000220041321378202BFCD1FA27BF002B781F
:10161000FE2B4FD0002B00D06EE7310003220C319F
:1016200007A800F01DFAFA239B00009307AA0323E2
:10163000AA212000FFF7D6F8220041321378202B90
:10164000FCD1DF3332202B70FEF724FEFA239B00FF
:1016500000932A0020000123AB21FFF759F9234C06
:10166000220041321378202BFCD1FA25AD000B2249
:101670006A441078FE282AD0431E9841C0B23CE745
:101680002A0000970123AB212000FFF741F9220037
:1016900041321378202BFCD163E72A000097012305
:1016A000AB212000FFF734F9220041321378202BC0
:1016B000FCD181E72A0000970123AB212000FFF72E
:1016C00027F9220041321378202BFCD19FE70095A7
:1016D0000123AB212000FFF71BF9220041321378D0
:1016E000202BFCD1C3E7C0469C1A00082400002030
:1016F00070B5012688B0FEF7ABFDFFF741FE14225E
:10170000002103A800F0B5F902218024A020294B74
:101710002402DA6AC0053243DA62DA6A002532400E
:101720000192019ADA6A0A43DA62DB6A00220B400C
:1017300002932100029BFEF7D1FE320020211E48B9
:10174000FEF7CCFEA020032303A9C0050394069353
:1017500004960595FEF70CFE202303A91648039373
:10176000049605950695FEF703FE144C144B2000D5
:101770002360E123DB006360A560E66025616561AD
:10178000A561E5612562FEF7D7FF29002000FFF77C
:1017900057F929002000FFF779F96420FEF77AFD58
:1017A000FFF72AFEFFF752FEFFF774FEB04200D1AA
:1017B000C046FEE700100240000400502400002054
:1017C00000540040F0B5FA26002387B0364C02AA38
:1017D000B60013705370AA21023305000096200052
:1017E000FFF700F82100330041310A78202AFCD1AC
:1017F00003AE009332000223AB212000FFF788F8EC
:10180000220041321378202BFCD133780120002BA9
:1018100047D17278082A44D1FA27122104AABF00BE
:10182000117053709831009702332000FEF7DAFFF1
:10183000220041321378202BFCD1320000971E3B4E
:10184000AB212000FFF764F8220041321378202BEF
:10185000FCD133780120002B23D1FA261349022230
:101860000F3105A8B60000F0FBF805AA0096022388
:10187000AA212000FEF7B6FF220041321378202B68
:10188000FCD1200000960A3B2A00AB21FFF740F86C
:1018900041342378202BFCD1A87C0338431E984187
:1018A000C0B207B0F0BDC046240000209C1A00085A
:1018B00010B5040086B00720FEF736FD80231B021A
:1018C0009C4205D16846FFF77DFF012800D1C04644
:1018D0000720FEF71FFD06B010BD00000122054BDA
:1018E000596B0A435A638022996B52050A439A63E3
:1018F0007047C0460010024010B5040086B01422A4
:10190000002101A800F0B5F8104B22689A421AD1C4
:1019100002210F4C0F48E26A0A43E262E36A0B407D
:101920000093009BC0239B000193122302930F3B63
:10193000049301A901330593FEF71AFD8023A26BDE
:101940009B031343A36306B010BDC0460054004080
:1019500000100240000400507047FEE770477047D7
:1019600010B5FEF789FC10BD8022104B520019689B
:101970000A431A60DA680E490A40DA601A680D49AB
:101980000A4001211A609A688A439A601A680A49D3
:101990000A401A60DA6809490A40DA6000221A61CE
:1019A0008022074B12059A607047C0460010024023
:1019B0000C40FF88F6FFF6FEFFFFFBFFFFFF02FF74
:1019C00000ED00E00D488546002103E00C4B5B581C
:1019D000435004310B480C4B42189A42F6D30B4A41
:1019E00002E0002313600432094B9A42F9D3FFF757
:1019F000BBFF00F011F8FFF77BFEFEE700200020A0
:101A0000D81A000800000020040000200400002074
:101A100070000020FEE7000070B500260C4D0D4C54
:101A2000641BA410A64209D1002600F02BF80A4D31
:101A30000A4C641BA410A64205D170BDB300EB583C
:101A400098470136EEE7B300EB5898470136F2E7C6
:101A5000D01A0008D01A0008D01A0008D41A0008BA
:101A6000002310B59A4200D110BDCC5CC4540133A0
:101A7000F8E703008218934200D1704719700133D0
:101A8000F9E70000F8B5C046F8BC08BC9E467047B0
:0C1A9000F8B5C046F8BC08BC9E46704784
:101A9C0010000310010F5200014403015202011205
:101AAC00014003094001000200000000000000009A
:101ABC000102030406070809030406080C10182089
:041ACC0030000000E6
:041AD000E900000821
:041AD400C100000845
:041AD80000002000EA
:04000005080019C511
:00000001FF
